{
  "contractName": "TokenFarm",
  "abi": [
    {
      "inputs": [
        {
          "internalType": "contract Orange",
          "name": "_orange",
          "type": "address"
        }
      ],
      "stateMutability": "nonpayable",
      "type": "constructor"
    },
    {
      "inputs": [
        {
          "internalType": "address",
          "name": "",
          "type": "address"
        }
      ],
      "name": "hasStaked",
      "outputs": [
        {
          "internalType": "bool",
          "name": "",
          "type": "bool"
        }
      ],
      "stateMutability": "view",
      "type": "function"
    },
    {
      "inputs": [
        {
          "internalType": "address",
          "name": "",
          "type": "address"
        }
      ],
      "name": "isStaking",
      "outputs": [
        {
          "internalType": "bool",
          "name": "",
          "type": "bool"
        }
      ],
      "stateMutability": "view",
      "type": "function"
    },
    {
      "inputs": [],
      "name": "name",
      "outputs": [
        {
          "internalType": "string",
          "name": "",
          "type": "string"
        }
      ],
      "stateMutability": "view",
      "type": "function"
    },
    {
      "inputs": [],
      "name": "orange",
      "outputs": [
        {
          "internalType": "contract Orange",
          "name": "",
          "type": "address"
        }
      ],
      "stateMutability": "view",
      "type": "function"
    },
    {
      "inputs": [],
      "name": "owner",
      "outputs": [
        {
          "internalType": "address",
          "name": "",
          "type": "address"
        }
      ],
      "stateMutability": "view",
      "type": "function"
    },
    {
      "inputs": [
        {
          "internalType": "uint256",
          "name": "",
          "type": "uint256"
        }
      ],
      "name": "stakers",
      "outputs": [
        {
          "internalType": "address",
          "name": "",
          "type": "address"
        }
      ],
      "stateMutability": "view",
      "type": "function"
    },
    {
      "inputs": [
        {
          "internalType": "address",
          "name": "",
          "type": "address"
        }
      ],
      "name": "stakingBalance",
      "outputs": [
        {
          "internalType": "uint256",
          "name": "",
          "type": "uint256"
        }
      ],
      "stateMutability": "view",
      "type": "function"
    },
    {
      "inputs": [
        {
          "internalType": "uint256",
          "name": "_amount",
          "type": "uint256"
        }
      ],
      "name": "stakeTokens",
      "outputs": [],
      "stateMutability": "nonpayable",
      "type": "function"
    },
    {
      "inputs": [],
      "name": "unstakeTokens",
      "outputs": [],
      "stateMutability": "nonpayable",
      "type": "function"
    },
    {
      "inputs": [],
      "name": "issueTokens",
      "outputs": [],
      "stateMutability": "nonpayable",
      "type": "function"
    }
  ],
  "bytecode": "0x60c0604052600f60808190527f4461707020546f6b656e204661726d000000000000000000000000000000000060a090815261003e9160009190610098565b5034801561004b57600080fd5b506040516109a53803806109a583398101604081905261006a91610131565b600280546001600160a01b039092166001600160a01b031992831617905560018054909116331790556101b5565b8280546100a490610161565b90600052602060002090601f0160209004810192826100c6576000855561010c565b82601f106100df57805160ff191683800117855561010c565b8280016001018555821561010c579182015b8281111561010c5782518255916020019190600101906100f1565b5061011892915061011c565b5090565b5b80821115610118576000815560010161011d565b60006020828403121561014357600080fd5b81516001600160a01b038116811461015a57600080fd5b9392505050565b600181811c9082168061017557607f821691505b602082108114156101af577f4e487b7100000000000000000000000000000000000000000000000000000000600052602260045260246000fd5b50919050565b6107e1806101c46000396000f3fe608060405234801561001057600080fd5b506004361061009e5760003560e01c80637547c7a3116100665780637547c7a3146101575780638da5cb5b1461016a578063a5ce413b1461017d578063c93c8f3414610185578063fd5e6dd1146101a857600080fd5b806306fdde03146100a357806345bc78ab146100c1578063529c46e9146100ef57806360ab58521461011a5780636f49712b14610124575b600080fd5b6100ab6101bb565b6040516100b891906106bc565b60405180910390f35b6100e16100cf366004610651565b60046020526000908152604090205481565b6040519081526020016100b8565b600254610102906001600160a01b031681565b6040516001600160a01b0390911681526020016100b8565b610122610249565b005b610147610132366004610651565b60066020526000908152604090205460ff1681565b60405190151581526020016100b8565b6101226101653660046106a3565b610398565b600154610102906001600160a01b031681565b61012261051e565b610147610193366004610651565b60056020526000908152604090205460ff1681565b6101026101b63660046106a3565b610627565b600080546101c890610729565b80601f01602080910402602001604051908101604052809291908181526020018280546101f490610729565b80156102415780601f1061021657610100808354040283529160200191610241565b820191906000526020600020905b81548152906001019060200180831161022457829003601f168201915b505050505081565b6001546001600160a01b031633146102a85760405162461bcd60e51b815260206004820152601860248201527f63616c6c6572206d75737420626520746865206f776e6572000000000000000060448201526064015b60405180910390fd5b60005b600354811015610395576000600382815481106102ca576102ca610795565b60009182526020808320909101546001600160a01b0316808352600490915260409091205490915080156103805760025460405163a9059cbb60e01b81526001600160a01b038481166004830152602482018490529091169063a9059cbb90604401602060405180830381600087803b15801561034657600080fd5b505af115801561035a573d6000803e3d6000fd5b505050506040513d601f19601f8201168201806040525081019061037e9190610681565b505b5050808061038d90610764565b9150506102ab565b50565b600081116103dd5760405162461bcd60e51b81526020600482015260126024820152710616d6f756e742063616e6e6f7420626520360741b604482015260640161029f565b6002546040516323b872dd60e01b8152336004820152306024820152604481018390526001600160a01b03909116906323b872dd90606401602060405180830381600087803b15801561042f57600080fd5b505af1158015610443573d6000803e3d6000fd5b505050506040513d601f19601f820116820180604052508101906104679190610681565b5033600090815260046020526040902054610483908290610711565b3360009081526004602090815260408083209390935560059052205460ff166104e957600380546001810182556000919091527fc2575a0e9e593c00f959f8c92f12db2869c3395a3b0502d05e2516446f71f85b0180546001600160a01b031916331790555b503360009081526006602090815260408083208054600160ff1991821681179092556005909352922080549091169091179055565b336000908152600460205260409020548061057b5760405162461bcd60e51b815260206004820152601b60248201527f7374616b696e672062616c616e63652063616e6e6f7420626520300000000000604482015260640161029f565b60025460405163a9059cbb60e01b8152336004820152602481018390526001600160a01b039091169063a9059cbb90604401602060405180830381600087803b1580156105c757600080fd5b505af11580156105db573d6000803e3d6000fd5b505050506040513d601f19601f820116820180604052508101906105ff9190610681565b505033600090815260046020908152604080832083905560069091529020805460ff19169055565b6003818154811061063757600080fd5b6000918252602090912001546001600160a01b0316905081565b60006020828403121561066357600080fd5b81356001600160a01b038116811461067a57600080fd5b9392505050565b60006020828403121561069357600080fd5b8151801515811461067a57600080fd5b6000602082840312156106b557600080fd5b5035919050565b600060208083528351808285015260005b818110156106e9578581018301518582016040015282016106cd565b818111156106fb576000604083870101525b50601f01601f1916929092016040019392505050565b600082198211156107245761072461077f565b500190565b600181811c9082168061073d57607f821691505b6020821081141561075e57634e487b7160e01b600052602260045260246000fd5b50919050565b60006000198214156107785761077861077f565b5060010190565b634e487b7160e01b600052601160045260246000fd5b634e487b7160e01b600052603260045260246000fdfea2646970667358221220d611c2695fbd62a297f99dd57bfd0792213eec98e38ad49127200a18a8a2165b64736f6c63430008070033",
  "immutableReferences": {},
  "source": "/**\n *Submitted for verification at BscScan.com on 2021-09-02\n*/\n\n// SPDX-License-Identifier: MIT\npragma solidity ^0.8.7;\n\nimport \"./Orange.sol\";\n\n\ncontract TokenFarm {\n    string public name = \"Dapp Token Farm\";\n    address public owner;\n    Orange public orange;\n  \n\n    address[] public stakers;\n    mapping(address => uint) public stakingBalance;\n    mapping(address => bool) public hasStaked;\n    mapping(address => bool) public isStaking;\n\n    constructor(Orange _orange) {\n        orange = _orange;\n        owner = msg.sender;\n    }\n\n    function stakeTokens(uint _amount) public {\n        // Require amount greater than 0\n        require(_amount > 0, \"amount cannot be 0\");\n\n        // Trasnfer Mock Dai tokens to this contract for staking\n        orange.transferFrom(msg.sender, address(this), _amount);\n\n        // Update staking balance\n        stakingBalance[msg.sender] = stakingBalance[msg.sender] + _amount;\n\n        // Add user to stakers array *only* if they haven't staked already\n        if(!hasStaked[msg.sender]) {\n            stakers.push(msg.sender);\n        }\n\n        // Update staking status\n        isStaking[msg.sender] = true;\n        hasStaked[msg.sender] = true;\n    }\n\n    // Unstaking Tokens (Withdraw)\n    function unstakeTokens() public {\n        // Fetch staking balance\n        uint balance = stakingBalance[msg.sender];\n\n        // Require amount greater than 0\n        require(balance > 0, \"staking balance cannot be 0\");\n\n        // Transfer Mock Dai tokens to this contract for staking\n        orange.transfer(msg.sender, balance);\n\n        // Reset staking balance\n        stakingBalance[msg.sender] = 0;\n\n        // Update staking status\n        isStaking[msg.sender] = false;\n    }\n\n    // Issuing Tokens\n    function issueTokens() public {\n        // Only owner can call this function\n        require(msg.sender == owner, \"caller must be the owner\");\n\n        // Issue tokens to all stakers\n        for (uint i=0; i<stakers.length; i++) {\n            address recipient = stakers[i];\n            uint balance = stakingBalance[recipient];\n            if(balance > 0) {\n                orange.transfer(recipient, balance);\n            }\n        }\n    }\n}",
  "sourcePath": "/home/skyxcripto/Área de Trabalho/DappOrange/src/contracts/TokenFarm.sol",
  "compiler": {
    "name": "solc",
    "version": "0.8.7+commit.e28d00a7.Emscripten.clang"
  },
  "schemaVersion": "3.2.3",
  "updatedAt": "2021-09-08T02:13:42.079Z",
  "networkType": "ethereum",
  "devdoc": {
    "kind": "dev",
    "methods": {},
    "version": 1
  },
  "userdoc": {
    "kind": "user",
    "methods": {},
    "version": 1
  }
}